:020000040000FA
:100000003FC04EC04DC04CC04BC04AC049C048C0A4
:1000100047C00EC145C044C043C042C041C040C0FB
:100020003FC03EC03DC0000000003700340031003A
:100030000000000038003500320000000000000021
:1000400000000003040600000000000000000000A3
:1000500000003600330030000404040404040404E7
:100060000202020202020303030303030102040863
:100070001020408001020408102001020408102012
:1000800011241FBECFE5D4E0DEBFCDBF20E0A0E647
:10009000B0E001C01D92A137B207E1F758D15FC2AD
:1000A000AFCF90E0FC01E65CFF4F3491FC01E459D6
:1000B000FF4F2491FC01E85AFF4FE491EE23E1F059
:1000C000332349F03430C9F03630D1F0333019F4ED
:1000D0008FB58F778FBDF0E0EE0FFF1FE05DFF4F14
:1000E000A591B4918FB7F89461110EC09C91E22F45
:1000F000E095E923EC938FBF08958FB58F7DEACF0C
:1001000085B58F7D85BDE7CFEC91E22BF3CFCF9303
:10011000DF9390E0FC01E459FF4F2491885A9F4FF0
:10012000FC0184918823D1F090E0880F991FFC0195
:10013000EA5DFF4FA591B491FC01E05DFF4FC591D1
:10014000D49161110EC09FB7F8948C91E22FE09585
:100150008E238C932881E223E8839FBFDF91CF9188
:1001600008958FB7F894EC91E22BEC938FBFF6CF04
:100170008E50806487B9369A3699FECF84B195B196
:1001800008953FB7F8948091650090916600A09122
:100190006700B091680022B708B600FE05C02F3F87
:1001A00019F00196A11DB11D3FBFBA2FA92F982F9D
:1001B0008827BC01CD01620F711D811D911D42E098
:1001C000660F771F881F991F4A95D1F708958F9260
:1001D0009F92AF92BF92CF92DF92EF92FF926B010C
:1001E0007C01CFDF4B015C01C114D104E104F104B7
:1001F000B1F0C7DF681979098A099B09683E734025
:100200008105910588F321E0C21AD108E108F108BF
:1002100088EE880E83E0981EA11CB11CE5CFFF90EC
:10022000EF90DF90CF90BF90AF909F908F90089508
:100230001F920F920FB60F9211242F933F938F931B
:100240009F93AF93BF938091610090916200A091C2
:100250006300B09164003091600023E0230F2D37DC
:1002600058F50196A11DB11D209360008093610097
:1002700090936200A0936300B09364008091650046
:1002800090916600A0916700B09168000196A11D51
:10029000B11D8093650090936600A0936700B093B2
:1002A0006800BF91AF919F918F913F912F910F90D7
:1002B0000FBE0F901F90189526E8230F0296A11DE0
:1002C000B11DD2CFCF92DF92EF92FF920F931F9387
:1002D000E82FF92F05C0015011092109310961F1F9
:1002E000908196239417B9F305C001501109210993
:1002F000310911F1908196239413F7CFC12CD12CA1
:10030000E12CF12C0AC08FEFC81AD80AE80AF80AC3
:100310000C151D052E053F0579F080818623841775
:1003200091F36C2D7D2D8E2D9F2D1F910F91FF90A0
:10033000EF90DF90CF90089560E070E080E090E073
:100340001F910F91FF90EF90DF90CF9008957894D8
:1003500083B7826083BF83B7816083BF89B78160C1
:1003600089BF1EBC8EB582608EBD8EB581608EBD8C
:100370008FB581608FBD85B5846085BD85B580648E
:1003800085BD329A319A309A379A1AB861E089E07D
:10039000BEDE61E081E0BBDE61E088E0B8DE60E007
:1003A00082E0B5DE60E080E1B2DE60E081E1AFDEF8
:1003B00060E082E1ACDE60E083E1A9DE60E088E03D
:1003C00070DE60E089E06DDE9FE0292E312C20E0B8
:1003D000822E20E0922EC8E8D3E160E081E061DE69
:1003E00083E090E00197F1F761E081E05ADEC1011E
:1003F0000197F1F760E081E054DEEEE6F0E0649111
:10040000EAE5F0E08491E82FF0E0EE0FFF1FE25BF9
:10041000FF4F8591949100E412E42FE030E0462FE5
:1004200051DF2B013C01411451046104710439F086
:10043000FFEF4F1A5F0A6F0A7F0A8FE0782280E190
:1004400097DE5C0181E194DE6C0182E191DE7C014A
:1004500083E18EDE8C01E4E44E16E2E05E06610488
:10046000710408F075C061E088E01BDE61E089E09E
:1004700018DEF5E8AF16F3E0BF0684F1D093700004
:10048000C0936F0060916F007091700080916D005B
:1004900090916E00680F791F80916B0090916C00B5
:1004A000680F791F8091690090916A00680F791F29
:1004B000072E000C880B990B8ADE60E088E0F1DDE6
:1004C00060E089E0EEDD68EB7BE080E090E07FDEDD
:1004D0008114910409F481CF93DD7FCF85E8C8169C
:1004E00083E0D8062CF0D0936E00C0936D00CACF85
:1004F000E5E8EE16E3E0FE062CF0D0936C00C09326
:100500006B00C0CF0538F3E01F072CF0D0936A00D2
:10051000C0936900B7CFAB2829F4109270001092F5
:100520006F00B0CFCD2829F410926E0010926D00AC
:10053000A9CFEF2829F410926C0010926B00A2CF83
:10054000012B09F09FCF10926A00109269009ACF98
:1005500060E088E0A6DD60E089E0A3DDB9CFF89433
:02056000FFCFCB
:101C000012C02BC02AC029C028C027C026C025C0AA
:101C100024C023C022C021C020C01FC01EC01DC0C0
:101C20001CC01BC01AC011241FBECFE5D4E0DEBF0C
:101C3000CDBF10E0A0E6B0E0E8EEFFE102C0059005
:101C40000D92A236B107D9F711E0A2E6B0E001C0CB
:101C50001D92AA36B107E1F74FC0D2CFEF92FF92A3
:101C60000F931F93EE24FF24870113C00894E11CF7
:101C7000F11C011D111D81E0E81682E1F8068AE7DA
:101C8000080780E0180728F0E0916200F0916300F7
:101C900009955F9BEBCF8CB1992787FD90951F919C
:101CA0000F91FF90EF9008955D9BFECF8CB9089542
:101CB000D5DF803221F484E1F7DF80E1F5DF08959C
:101CC0001F93182FCBDF803231F484E1EDDF812FB9
:101CD000EBDF80E1E9DF1F9108951F93CF93DF933E
:101CE000182FC0E0D0E002C0B9DF2196C117E0F3A1
:101CF000DF91CF911F910895CFE5D4E0DEBFCDBF36
:101D0000000010BC83E389B988E18AB986E880BD08
:101D1000BD9A1092680130E2E0E0F0E02FE088B375
:101D2000832788BBCF010197F1F7215027FFF7CF19
:101D300020E12093680192DF803381F1813399F4AF
:101D40008DDF8032C1F784E1AFDF81E4ADDF86E56E
:101D5000ABDF82E5A9DF80E2A7DF89E4A5DF83E5C9
:101D6000A3DF80E5C7C0803429F478DF8638B0F07F
:101D700075DF14C0813471F471DF803811F482E0B2
:101D80001DC1813811F481E019C1823809F015C1F3
:101D900082E114C1823421F484E19FDF89DFCBCF5B
:101DA000853411F485E0F9CF8035C1F38135B1F385
:101DB0008235A1F3853539F451DF809364004EDF1D
:101DC00080936500EBCF863519F484E086DFF5C09B
:101DD000843609F093C042DF809367013FDF809330
:101DE0006601809169018E7F8093690137DF8534B8
:101DF00029F480916901816080936901C0E0D0E09D
:101E000006E610E005C02ADFF80181938F012196D4
:101E10008091660190916701C817D907A0F31EDF72
:101E2000803209F088CF8091690180FF1FC020E0D7
:101E300030E0E6E6F0E012C0A0916400B0916500E9
:101E40008191082EC5D08091640090916500019623
:101E500090936500809364002F5F3F4F80916601EF
:101E6000909167012817390738F343C0F894E19936
:101E7000FECF1127E0916400F0916500EE0FFF1F87
:101E8000C6E6D0E0809166019091670180FF01C0B5
:101E90000196103051F422D003E000935700E895EA
:101EA0001DD001E100935700E8950990199016D0D4
:101EB00001E000935700E8951395103258F0112770
:101EC0000DD005E000935700E89508D001E100939C
:101ED0005700E8953296029739F0DBCF0091570012
:101EE00001700130D9F30895103011F00296E7CF58
:101EF000112484E1D9DE80E1D7DE1DCF843709F0DB
:101F00004BC0ACDE80936701A9DE80936601A6DE3C
:101F100090916901853421F49160909369010DC01D
:101F20009E7F909369018091640090916500880F75
:101F3000991F909365008093640090DE803209F0D1
:101F4000FACE84E1B1DEC0E0D0E01EC0809169012C
:101F500080FF07C0A0916400B091650031D0802D52
:101F600008C081FD07C0E0916400F0916500E49134
:101F70008E2F9ADE80916400909165000196909377
:101F800065008093640021968091660190916701BD
:101F9000C817D907D8F2AFCF853761F45FDE80323A
:101FA00009F0C9CE84E180DE8EE17EDE83E97CDE4D
:101FB00087E0A0CF863709F0BECE80E081DEBBCEC1
:101FC000E199FECFBFBBAEBBE09A11960DB208956A
:101FD000E199FECFBFBBAEBB0DBA11960FB6F89418
:0A1FE000E29AE19A0FBE0895800016
:00000001FF
