:100000003AC049C048C047C046C045C044C043C0CC
:1000100042C0CEC040C03FC03EC03DC03CC03BC05F
:100020003AC039C038C00000000037003400310049
:100030000000000038003500320004040404040409
:100040000404020202020202030303030303010287
:100050000408102040800102040810200102040856
:100060001020000000000000000000030406000053
:1000700000000000000011241FBECFE5D4E0DEBF69
:10008000CDBF20E0A0E6B0E001C01D92A936B207C6
:10009000E1F7D8D01DC1B4CFEBE6F0E02491E7E55D
:1000A000F0E09491E3E4F0E0E491EE23E1F0222328
:1000B00049F02430C9F02630D1F0233019F42FB59F
:1000C0002F772FBDF0E0EE0FFF1FE05DFF4FA591F2
:1000D000B4912FB7F89481110EC08C91E92FE0955F
:1000E000E823EC932FBF08952FB52F7DEACF25B5D8
:1000F0002F7D25BDE7CFEC91E92BF3CF3FB7F894E7
:100100008091650090916600A0916700B0916800B1
:1001100022B708B600FE05C02F3F19F00196A11DB9
:10012000B11D3FBFBA2FA92F982F8827BC01CD0141
:10013000620F711D811D911D42E0660F771F881FA0
:10014000991F4A95D1F708958F929F92AF92BF92CF
:10015000CF92DF92EF92FF92D1DF4B015C0188EEEC
:10016000C82E83E0D82EE12CF12CC8DF681979095C
:100170008A099B09683E734081059105B0F321E02F
:10018000C21AD108E108F10888EE880E83E0981EB3
:10019000A11CB11CC114D104E104F10431F7FF909A
:1001A000EF90DF90CF90BF90AF909F908F90089589
:1001B0001F920F920FB60F9211242F933F938F939C
:1001C0009F93AF93BF938091610090916200A09143
:1001D0006300B09164003091600023E0230F2D375D
:1001E00058F50196A11DB11D209360008093610018
:1001F00090936200A0936300B093640080916500C7
:1002000090916600A0916700B09168000196A11DD1
:10021000B11D8093650090936600A0936700B09332
:100220006800BF91AF919F918F913F912F910F9057
:100230000FBE0F901F90189526E8230F0296A11D60
:10024000B11DD2CF789483B7826083BF83B78160BA
:1002500083BF89B7816089BF1EBC8EB582608EBDA9
:100260008EB581608EBD8FB581608FBD85B5846090
:1002700085BD85B5806485BD329A319A309A379AAA
:100280001AB8E7E5F0E02491E3E4F0E084918823F4
:1002900099F090E0880F991FFC01EA5DFF4FA5914E
:1002A000B491FC01E05DFF4F859194918FB7F89474
:1002B000EC91E22BEC938FBFC0E0D0E081E0ECDE6C
:1002C00043DF80E0E9DE40DF2097C1F399DEF6CF1F
:0402D000F894FFCFD0
:00000001FF
