:020000040000FA
:100000000C946A000C9492000C9492000C94920050
:100010000C9492000C9492000C9492000C94920018
:100020000C9492000C94DD030C9492000C94D20278
:100030000C9404030C9492000C9492000C94920083
:100040000C9492000C9492000C9492000C949200E8
:100050000C9492000000000200000000000000006C
:100060000504000700000000000000000000000080
:100070000000000001020408102040800102040872
:100080001020408001020408102040800102040872
:100090001020408002020202020202020404040450
:1000A0000404040403030303030303030101010124
:1000B000010101010000390036003300300000006A
:1000C0003B0038003500320000003A0037003400B1
:1000D0003100340311241FBECFE5D4E0DEBFCDBF15
:1000E00010E0A0E6B0E0ECE6F9E002C005900D9269
:1000F000AA37B107D9F721E0AAE7B0E001C01D9205
:10010000A232B207E1F710E0CAE6D0E004C02197BE
:10011000FE010E949F04C936D107C9F70E94CE0391
:100120000C94B4040C94000026E040E855E260E032
:1001300070E08CE790E00E94790261E080916600B7
:100140000E94130161E0809164000E94130161E04C
:10015000809160000E94130160E0809162000C9425
:100160001301AF92BF92CF92DF92EF92FF920F9363
:100170001F93809162000E947D0190937B00809389
:100180007A00BC01990F880B990B1F921F921F9246
:100190002FEF2F93A12CB12C6501EE24EA9413E0EC
:1001A000F12E00E010E020E030E0A9010E948C0375
:1001B000CB0160937A0090937B00809160000E9455
:1001C0004F0161E0809166000E944F010F900F90F7
:1001D0000F900F9060E0809164001F910F91FF904D
:1001E000EF90DF90CF90BF90AF900C944F01843090
:1001F00059F028F4813099F0823089F008958530E3
:1002000039F0873041F008958FB58F778FBD08950D
:100210008FB58F7DFBCF85B58F7D85BD089583B765
:100220008F7D83BF0895CF93DF9390E0FC01EC585E
:10023000FF4F24918C569F4FFC0184918823C9F075
:1002400090E0880F991FFC01E853FF4FA591B491EE
:10025000FC01E254FF4FC591D49161110DC09FB7CD
:10026000F8948C91209582238C938881282328836D
:100270009FBFDF91CF910895623051F49FB7F894FA
:100280003C91822F809583238C93E8812E2BEFCF96
:100290008FB7F894EC912E2B2C938FBFEACF1F933E
:1002A000CF93DF93282F30E0F901EC5AFF4F849170
:1002B000F901EC58FF4FD491F901EC56FF4FC4916E
:1002C000CC23A9F0162F81110E94F700EC2FF0E04B
:1002D000EE0FFF1FE254FF4FA591B4918FB7F89432
:1002E000EC91111108C0D095DE23DC938FBFDF9114
:1002F000CF911F910895DE2BF8CFCF93DF93282F56
:1003000030E0F901EC5AFF4F8491F901EC58FF4FAE
:10031000D491F901EC56FF4FC491CC23A1F0811187
:100320000E94F700EC2FF0E0EE0FFF1FEC54FF4FA0
:10033000A591B491EC91ED2381E090E009F480E087
:10034000DF91CF91089580E090E0FACFFC01918D8C
:10035000228D892F90E0805C9F4F821B91098F73C3
:1003600099270895FC01918D828D981731F0828D27
:10037000E80FF11D858D90E008958FEF9FEF0895B0
:10038000FC01918D828D981761F0A28DAE0FBF2F69
:10039000B11D5D968C91928D9F5F9F73928F90E0BF
:1003A00008958FEF9FEF0895FC01538D448D252F05
:1003B00030E0842F90E0821B930B541710F0CF96FF
:1003C0000895019708958AE293E0892B49F080E02F
:1003D00090E0892B29F00E942A0381110C940000DF
:1003E0000895FC01A48DA80FB92FB11DA35ABF4FCA
:1003F0002C91848D90E001968F739927848FA68924
:10040000B7892C93A089B1898C9180648C93938D4A
:10041000848D981306C00288F389E02D80818F7D3A
:1004200080830895CF93DF93EC01888D8823B9F002
:10043000AA89BB89E889F9898C9185FD03C08081EF
:1004400086FD0DC00FB607FCF7CF8C9185FFF2CF6C
:10045000808185FFEDCFCE010E94F101E9CFDF91D0
:10046000CF910895EF92FF920F931F93CF93DF9355
:10047000EC0181E0888F9B8D8C8D981316C0E889E4
:10048000F989808185FF11C0EE89FF896083E88941
:10049000F98980818064808381E090E0DF91CF9151
:1004A0001F910F91FF90EF900895F62E0B8D10E0A5
:1004B0000F5F1F4F0F731127E02E8C8D8E110CC014
:1004C0000FB607FCFACFE889F989808185FFF5CF5F
:1004D000CE010E94F101F1CFEB8DEC0FFD2FF11D4C
:1004E000E35AFF4FF0820B8FEA89FB89808180629B
:1004F000D2CFCF92DF92EF92FF921F93CF93DF93F1
:10050000EC016A017B01122FE889F98982E080837E
:10051000C11481EED806E104F104A1F060E079E0B5
:100520008DE390E0A70196010E9453042150310908
:10053000410951095695479537952795211580E131
:10054000380798F0E889F989108260E874E88EE14C
:1005500090E0A70196010E945304215031094109FE
:1005600051095695479537952795EC85FD8530833C
:10057000EE85FF852083188E1068EC89FD89108335
:10058000EA89FB89808188698083EA89FB89808187
:100590008F7D8083DF91CF911F91FF90EF90DF904F
:1005A000CF9008951F920F920FB60F9211242F93A0
:1005B0008F939F93EF93FF93E0918C00F0918D00C8
:1005C0008081E0919200F091930082FD1BC09081A8
:1005D000809195008F5F8F7320919600821741F074
:1005E000E0919500F0E0E458FF4F958F80939500DF
:1005F000FF91EF919F918F912F910F900FBE0F90D0
:100600001F9018958081F4CF1F920F920FB60F9212
:1006100011242F933F934F935F936F937F938F9307
:100620009F93AF93BF93EF93FF938CE790E00E946B
:10063000F101FF91EF91BF91AF919F918F917F91C8
:100640006F915F914F913F912F910F900FBE0F903F
:100650001F9018958CE790E00E94A60121E0892B5D
:1006600009F420E0822F0895ECE7F0E01382128273
:1006700088EE93E0A0E0B0E084839583A683B783FF
:100680008CE690E09183808380E490E09587848776
:1006900029E230E0378726872BE230E0318B208B50
:1006A0002AE230E0338B228B958B848B8CE290E0B6
:1006B000978B868B118E128E138E148E0895AF92A7
:1006C000BF92CF92DF92EF92FF920F931F93CF933F
:1006D000DF936C017B018B01040F151FEB015E01A1
:1006E000AE18BF08C017D10759F06991D601ED9136
:1006F000FC910190F081E02DC6010995892B79F7D5
:10070000C501DF91CF911F910F91FF90EF90DF9086
:10071000CF90BF90AF9008954F925F926F927F926B
:10072000AF92BF92CF92DF92EF92FF920F931F93FF
:10073000CF93DF93CDB7DEB729013A019B01AC011E
:10074000241935094609570989899A89AB89BC89D1
:10075000BC01CD016A197B098C099D090E944304E3
:10076000A801970124193509460957090E94750403
:10077000CA01B9016A0D7B1D8C1D9D1DDF91CF91B2
:100780001F910F91FF90EF90DF90CF90BF90AF90AF
:100790007F906F905F904F90089508950E94270476
:1007A0000E94CD030E949400C3EED1E00E94B100EC
:1007B0002097E1F30E94E301F9CF1F920F920FB649
:1007C0000F9211242F933F938F939F93AF93BF93D7
:1007D00080911E0190911F01A0912001B0912101F3
:1007E00030911D0123E0230F2D3768F126E8230FF8
:1007F0000296A11DB11D20931D0180931E019093AF
:100800001F01A0932001B0932101809119019091C3
:100810001A01A0911B01B0911C010196A11DB11DEF
:100820008093190190931A01A0931B01B0931C01AE
:10083000BF91AF919F918F913F912F910F900FBEDC
:100840000F901F9018950196A11DB11DD4CF7894DB
:1008500083B7836083BF83B7886483BF89B78160B0
:1008600089BF82E08EBD8EB581608EBD8FB58160FF
:100870008FBD85B5846085BD85B5806485BD87E8FD
:1008800086B91AB80895DB018F939F930E94940450
:10089000BF91AF91A29F800D911DA39F900DB29F1C
:1008A000900D11240895A1E21A2EAA1BBB1BFD0175
:1008B0000DC0AA1FBB1FEE1FFF1FA217B307E4073F
:1008C000F50720F0A21BB30BE40BF50B661F771F97
:1008D000881F991F1A9469F7609570958095909577
:1008E0009B01AC01BD01CF010895052E97FB1EF4BD
:1008F00000940E948C0457FD07D00E94530407FC0B
:1009000003D04EF40C948C0450954095309521956D
:100910003F4F4F4F5F4F089590958095709561952B
:100920007F4F8F4F9F4F08950E94A504A59F900D64
:10093000B49F900DA49F800D911D11240895EE0F7A
:10094000FF1F0590F491E02D0994A29FB001B39F81
:10095000C001A39F700D811D1124911DB29F700DC8
:10096000811D1124911D0895F894FFCF1E001F00D2
:10097000170016000000000032025F03D4011202CB
:06098000A601C001B20156
:103E000001C0B1C011248FE594E09EBF8DBF84B77F
:103E1000882361F0982F9A70923041F081FF02C0A0
:103E200097EF94BF282E80E0B9D0EAC085E08EBD20
:103E300082E08BB988E18AB986E880BD80E189B9E2
:103E40008EE0ACD0B89A84E020E33CEF44E051E04F
:103E50003DBD2CBD48BF08B602FEFDCF98B39527E7
:103E600098BBA8955F9902C0815091F790D081349A
:103E700079F48DD0182F96D0123811F480E004C058
:103E800088E0113809F083E07ED080E17CD0EECF6D
:103E9000823419F484E18ED0F8CF853411F485E0B2
:103EA000FACF853541F473D0C82F71D0D82FCC0FFD
:103EB000DD1F78D0EACF863519F484E07BD0DECFE1
:103EC000843699F564D063D0182F61D0D82E012F95
:103ED00090E6E92EF12C57018FEFA81AB80A57D0B7
:103EE000F701808301507501B1F75CD0F5E4DF1272
:103EF00001C0FFCF50E040E063E0CE0134D07E014E
:103F000080E6C82ED12CF601419151916F0161E0FC
:103F1000C70129D0F2E0EF0EF11C1250A1F750E0DA
:103F200040E065E0CE011FD0B0CF843771F42FD0D0
:103F30002ED0F82E2CD036D08E01F80185918F012D
:103F400022D0FA94F110F9CFA0CF853731F42AD0DE
:103F50008EE119D084E917D096CF813509F0A9CF29
:103F600088E01CD0A6CFFC010A0167BFE8951124A8
:103F700007B600FCFDCF667029F0452B19F481E1EE
:103F800087BFE89508955D9BFECF8CB908955F9B30
:103F9000FECF5C9901C0A8958CB1089598E191BDC0
:103FA00081BD0895F4DF803219F088E0F7DFFFCF9C
:103FB00084E1E9CFCF93C82FEADFC150E9F7CF9171
:023FC000F1CF3F
:023FFE000008B9
:00000001FF
