:100000000C942A000C943C000C943C000C943C0092
:100010000C943C000C943C000C943C000C943C0070
:100020000C943C000C943C000C943C000C943C0060
:100030000C943C000C943C000C943C000C943C0050
:100040000C943C000C943C000C943C000C943C0040
:100050000C943C0011241FBECFE5D4E0DEBFCDBF21
:1000600020E0A0E6B0E001C01D92A036B207E1F7A3
:100070000E9454000C946F000C9400001ABA87E898
:1000800086B980E487B908958770806487B9369A05
:10009000349BFECF349A8FE99FE00197F1F700C0BF
:1000A000000084B195B108958FEF84BB8A98BB9A04
:1000B00080E48BBF83E085BF78940E943E0012BE2F
:1000C0008BE683BFC1E0C5BB80E00E94440097FD82
:1000D000039695958795959587958CBFF4CFF89461
:0200E000FFCF50
:00000001FF
